:100000000C9464000C94C6040C94F3040C948C00BF
:100010000C948C000C948C000C948C000C946A044E
:100020000C948C000C948C000C948C000C948C0020
:100030000C948C000C948C000C948C000C948C0010
:100040000C9420050C948C000C94EC000C943A0158
:100050000C948C000C948C000C948C000C948C00F0
:100060000C948C000C948C000200000000240027EB
:10007000002A0000000000250028002B00000000DE
:1000800000230026002900040404040404040402DC
:100090000202020202030303030303010204081025
:1000A00020408001020408102001020408102000F2
:1000B0000000070002010000030406000000000029
:1000C00000000000A602FC0211241FBECFEFD8E002
:1000D000DEBFCDBF11E0A0E0B1E0E4E0F1E102C09D
:1000E00005900D92AE31B107D9F711E0AEE1B1E064
:1000F00001C01D92AC3EB107E1F710E0C8ECD0E0C2
:1001000004C02297FE010E945E07C43CD107C9F7D4
:100110000E944D030C9480080C9400000F931F93D1
:10012000CF93DF938C014115510531F09B01241BC6
:10013000350B460F571F0BC02115310519F49B01D4
:10014000AB0105C0AB01421B530B260F371FB90192
:100150002F3F310519F014F06FEF70E0EA014F3FC7
:10016000510519F014F0CFEFD0E077FF02C060E046
:1001700070E0C8010E94B006C8010596BE01D7FF15
:1001800002C060E070E00E94B006DF91CF911F9145
:100190000F9108950F931F938C010E948E00C80148
:1001A0000E94B406C80105960E94B4061F910F91E3
:1001B00008950F931F938C0169E044E025E00E94AD
:1001C000CA06C80105966AE046E027E00E94CA0612
:1001D0001F910F91089508951F920F920FB60F92DD
:1001E00011242F933F934F938F939F93EF93FF93FC
:1001F0008091C00082FD1DC04091C60020915E012B
:1002000030915F012F5F3F4F2F73307080916001FD
:10021000909161012817390771F0E0915E01F0912A
:100220005F01E25EFE4F408330935F0120935E01E9
:1002300002C08091C600FF91EF919F918F914F91E5
:100240003F912F910F900FBE0F901F901895E09146
:10025000B201F091B301E05CFF4F81919191208157
:100260003181821B930B8F739070892B11F00E9448
:10027000EB0008951F920F920FB60F9211242F9347
:100280003F938F939F93EF93FF932091A20130911F
:10029000A3018091A4019091A5012817390731F499
:1002A0008091C1008F7D8093C10014C0E091A401B2
:1002B000F091A501EE59FE4F20818091A40190910B
:1002C000A50101968F7390709093A5018093A4016E
:1002D0002093C600FF91EF919F918F913F912F91B5
:1002E0000F900FBE0F901F901895AF92BF92DF92A4
:1002F000EF92FF920F931F93CF93DF93EC017A015C
:100300008B01DD24403081EE580780E0680780E0F3
:10031000780711F0DD24D39491E0A92EB12CEC895B
:10032000FD89DD2069F0C50108A002C0880F991F72
:100330000A94E2F7808360E079E08DE390E005C005
:10034000108260E874E88EE190E0A80197010E94B5
:100350003A072150304040405040569547953795D8
:10036000279580E12030380720F0DD2011F0DD24D2
:10037000D6CFE889F9893083EA89FB89208319A2DD
:10038000EE89FF89408121E030E0C9010C8C02C078
:10039000880F991F0A94E2F7482B4083EE89FF8962
:1003A0004081C9010D8C02C0880F991F0A94E2F7A1
:1003B000482B4083EE89FF894081C9010E8C02C021
:1003C000880F991F0A94E2F7482B4083EE89FF8932
:1003D00080810F8C02C0220F331F0A94E2F7209510
:1003E00028232083DF91CF911F910F91FF90EF90F1
:1003F000DF90BF90AF900895DC011C96ED91FC91C9
:100400001D97E05CFF4F2191319180819181281BE4
:10041000390B2F733070C9010895DC011C96ED91E2
:10042000FC911D97E05CFF4F20813181E054F0404A
:10043000DF01AE5BBF4F8D919C9111972817390753
:1004400019F42FEF3FEF07C08D919C91E80FF91F32
:100450008081282F30E0C9010895DC011C96ED91C0
:10046000FC911D97E05CFF4F20813181E054F0400A
:10047000DF01AE5BBF4F8D919C9111972817390713
:1004800019F42FEF3FEF10C08D919C911197E80F59
:10049000F91F20818D919C91119701968F73907017
:1004A00011969C938E9330E0C9010895DC019196DA
:1004B0008C919197882339F05496ED91FC91559742
:1004C000808186FFF9CF91961C920895CF93DF9398
:1004D000EC01EE85FF85E05CFF4F20813181E05427
:1004E000F0402F5F3F4F2F733070DF01AE5BBF4F87
:1004F0008D919C91119728173907D1F3E05CFF4F3C
:1005000080819181E054F040E80FF91F6083EE850F
:10051000FF85E05CFF4F31832083EE89FF892081D6
:1005200081E090E00F8C02C0880F991F0A94E2F7D7
:10053000282B208381E089A3EC89FD898081806458
:10054000808381E090E0DF91CF9108951092A9011E
:100550001092A80188EE93E0A0E0B0E08093AA0199
:100560009093AB01A093AC01B093AD018BE091E00F
:100570009093A7018093A6018EE191E09093B3013F
:100580008093B20182E691E09093B5018093B4012B
:1005900085EC90E09093B7018093B60184EC90E0F5
:1005A0009093B9018093B80180EC90E09093BB01E7
:1005B0008093BA0181EC90E09093BD018093BC01DF
:1005C00082EC90E09093BF018093BE0186EC90E0B6
:1005D0009093C1018093C00184E08093C20183E0C5
:1005E0008093C30187E08093C40185E08093C501B7
:1005F00081E08093C60108958BE191E09093C90159
:100600008093C8011092CA011092CB011092CC01C4
:100610001092CD0108958F929F92AF92BF92CF9288
:10062000DF92EF92FF920F931F93CF93DF934C01D2
:100630006B017C01AA24BB24C0E0D0E0C601F70115
:1006400062814AE050E00E9420048C01C6016EE203
:100650000E948903080F191FA00EB11E219608944D
:10066000E11CF11CC330D10549F7C601F4016581D5
:100670004AE050E00E9420049501280F391FC9016B
:10068000DF91CF911F910F91FF90EF90DF90CF906E
:10069000BF90AF909F908F900895CF93DF930E946B
:1006A00076050E940207C7E2D1E00E94E206209789
:1006B000E1F30E942701F9CF0E9462070895CF92CB
:1006C000DF92EF92FF920F931F93CF93DF937C0102
:1006D0006B018A01C0E0D0E00FC0D6016D916D01C1
:1006E000D701ED91FC910190F081E02DC7010995B2
:1006F000C80FD91F015010400115110571F7CE0127
:10070000DF91CF911F910F91FF90EF90DF90CF90ED
:100710000895DC01ED91FC910190F081E02D0995A7
:100720000895CF93DF93EC016115710519F420E072
:1007300030E00FC0DB010D900020E9F71197A61BF8
:10074000B70BE881F9810280F381E02DAD010995B5
:100750009C01C901DF91CF9108954F925F927F92E2
:100760008F929F92AF92BF92CF92DF92EF92FF92C1
:100770000F931F93DF93CF93CDB7DEB7A1970FB63B
:10078000F894DEBF0FBECDBF2C01742ECB012230FA
:1007900008F42AE019A231E2C32ED12CCC0EDD1EC2
:1007A000822E9924AA24BB24672D752FA5019401BC
:1007B0000E943A0779018A01C801B701A501940195
:1007C0000E941B07472D461B0894C108D1084A30D8
:1007D00014F4405D01C0495CF6014083E114F1046A
:1007E0000105110521F07E2C5F2DC801DDCFC2016E
:1007F000B6010E949103A1960FB6F894DEBF0FBE1A
:10080000CDBFCF91DF911F910F91FF90EF90DF90BF
:10081000CF90BF90AF909F908F907F905F904F90C0
:100820000895DC012115310541F4ED91FC91019011
:10083000F081E02D642F099508950E94AD0308957D
:10084000EF92FF920F931F939A01E62EFF2400E090
:1008500010E0B801A7010E9411041F910F91FF90B1
:10086000EF900895813041F0813018F08230D1F45A
:1008700009C010926E00089580916F008D7F809363
:100880006F000895809170008D7F8093700081E0EB
:100890008093B0008091B100887F84608093B10024
:1008A0001092B30008951F93182F809106018117AD
:1008B00011F09FEF06C0E8E6F0E094918FEF80938F
:1008C0000601892F0E943204812F60E00E947D067C
:1008D0001F9108951F920F920FB60F9211242F931C
:1008E0003F934F935F936F937F938F939F93AF93B8
:1008F000BF93EF93FF938091CE019091CF01A09190
:10090000D001B091D1010097A105B10551F1E0915D
:10091000D201F091D30180819091D4018927808305
:100920008091CE019091CF01A091D001B091D101E1
:10093000181619061A061B06C4F48091CE01909170
:10094000CF01A091D001B091D1010197A109B109C6
:100950008093CE019093CF01A093D001B093D101A9
:1009600004C0809106010E945304FF91EF91BF9152
:10097000AF919F918F917F916F915F914F913F9137
:100980002F910F900FBE0F901F9018951F920F92EE
:100990000FB60F9211242F933F934F935F936F9352
:1009A0007F938F939F93AF93BF93EF93FF93809128
:1009B000D5019091D601892B29F0E091D501F091D4
:1009C000D6010995FF91EF91BF91AF919F918F91C2
:1009D0007F916F915F914F913F912F910F900FBE3B
:1009E0000F901F9018951F920F920FB60F9211241F
:1009F0002F933F934F935F936F937F938F939F9327
:100A0000AF93BF93EF93FF938091D7019091D8015B
:100A1000892B29F0E091D701F091D8010995FF9138
:100A2000EF91BF91AF919F918F917F916F915F9166
:100A30004F913F912F910F900FBE0F901F901895DF
:100A40001F920F920FB60F9211242F933F938F9303
:100A50009F93AF93BF938091DD019091DE01A091B0
:100A6000DF01B091E0013091E1010196A11DB11DBE
:100A7000232F2D5F2D3720F02D570196A11DB11D7D
:100A80002093E1018093DD019093DE01A093DF01CB
:100A9000B093E0018091D9019091DA01A091DB013E
:100AA000B091DC010196A11DB11D8093D9019093F5
:100AB000DA01A093DB01B093DC01BF91AF919F916C
:100AC0008F913F912F910F900FBE0F901F9018950F
:100AD0008FB7F8942091DD013091DE014091DF0164
:100AE0005091E0018FBFB901CA010895789484B58F
:100AF000826084BD84B5816084BD85B5826085BD1A
:100B000085B5816085BDEEE6F0E0808181608083FF
:100B1000E1E8F0E0108280818260808380818160E2
:100B20008083E0E8F0E0808181608083E1EBF0E0A9
:100B3000808184608083E0EBF0E08081816080834D
:100B4000EAE7F0E080818460808380818260808336
:100B50008081816080838081806880831092C10061
:100B600008951F93CF93DF93182FEB0161E00E944C
:100B70001106209709F44AC0CF3FD10509F449C0B6
:100B8000E12FF0E0E155FF4F84918330C1F08430D4
:100B900028F4813051F08230B1F50CC0863019F163
:100BA000873049F1843079F514C084B5806884BDFC
:100BB000C7BD33C084B5806284BDC8BD2EC08091DE
:100BC0008000806880938000D0938900C093880063
:100BD00024C080918000806280938000D0938B003D
:100BE000C0938A001AC08091B00080688093B000E2
:100BF000C093B30012C08091B00080628093B000B7
:100C0000C093B4000AC0C038D1051CF4812F60E045
:100C100002C0812F61E00E947D06DF91CF911F917C
:100C20000895CF93DF93482F50E0CA0185569F4F18
:100C3000FC01349149575F4FFA018491882369F18F
:100C400090E0880F991FFC01E759FF4FA591B491DF
:100C5000FC01ED58FF4FC591D491662351F42FB795
:100C6000F8948C91932F909589238C938881892374
:100C70000BC0623061F42FB7F8948C91932F90954C
:100C800089238C938881832B88832FBF06C09FB7CD
:100C9000F8948C91832B8C939FBFDF91CF91089513
:100CA000833071F0843028F48130A1F0823021F556
:100CB00014C08630B1F08730D1F08430E9F404C03C
:100CC000809180008F7703C0809180008F7D80931A
:100CD0008000089584B58F7702C084B58F7D84BD70
:100CE00008958091B0008F778093B000089580912F
:100CF000B0008F7D8093B0000895FF920F931F93F3
:100D0000F62E482F50E0CA0181559F4FFC012491D7
:100D1000CA0185569F4FFC01149149575F4FFA0154
:100D200004910023C9F0222319F0822F0E9450065B
:100D3000E02FF0E0EE0FFF1FED58FF4FA591B491AB
:100D40009FB7F894FF2021F48C911095812302C065
:100D50008C91812B8C939FBF1F910F91FF900895D1
:100D6000FC017483638308950F931F938C01FC012E
:100D7000818161E00E947D06F801828160E00E942D
:100D80007D06F8016381748180810E94B1051F9105
:100D90000F9108950F931F938C01862FF8016083A4
:100DA0004183228361E00E941106F801818161E0A4
:100DB0000E941106F801828161E00E9411061F91D4
:100DC0000F9108950E9468052091E4013091E5019A
:100DD0004091E6015091E701621B730B840B950B68
:100DE000645F71408040904060F48091E201909196
:100DF000E30166E470E040E050E020E030E00E9473
:100E0000CA0008950F931F9386EA91E040E855E2E7
:100E100060E070E00E9475018AE090E00E945C034F
:100E2000182F092F0E94D9001093E2010093E301CB
:100E30001F910F910895629FD001739FF001829FCF
:100E4000E00DF11D649FE00DF11D929FF00D839F59
:100E5000F00D749FF00D659FF00D9927729FB00DF6
:100E6000E11DF91F639FB00DE11DF91FBD01CF0109
:100E700011240895A1E21A2EAA1BBB1BFD010DC06F
:100E8000AA1FBB1FEE1FFF1FA217B307E407F5073A
:100E900020F0A21BB30BE40BF50B661F771F881F16
:100EA000991F1A9469F760957095809590959B01AC
:100EB000AC01BD01CF010895EE0FFF1F0590F49125
:100EC000E02D0994CF93DF93682F792F823091051D
:100ED00010F462E070E0A091EA01B091EB01CA2F3A
:100EE000DB2FE0E0F0E040E050E026C0888199810F
:100EF0008617970771F48A819B81309719F0938345
:100F0000828304C09093EB018093EA01EC2FFD2FC4
:100F10003BC06817790740F44115510519F0841753
:100F2000950710F4482F592FEC2FFD2F8A819B81B4
:100F3000282F392FC22FD32F2097C1F641155105E5
:100F4000E9F1842F952F861B970B049710F4642FDB
:100F5000752FE0E0F0E030C08D919C9111978417DF
:100F6000950711F56417750789F412968D919C9178
:100F70001397309719F09383828304C09093EB0109
:100F80008093EA01EA2FFB2F329657C0842F952FCA
:100F9000861B970BEA2FFB2FE80FF91F61937193C4
:100FA00002978D939C9349C0EA2FFB2F82819381F6
:100FB000282F392FA22FB32F109771F68091E801B7
:100FC0009091E901892B41F48091020190910301F4
:100FD0009093E9018093E80140910401509105014B
:100FE0004115510541F44DB75EB7809100019091D4
:100FF0000101481B590B2091E8013091E9012417A8
:101000003507C8F4842F952F821B930B86179707FB
:1010100090F0462F572F4E5F5F4F8417950758F07B
:10102000420F531F5093E9014093E801E22FF32F41
:101030006193719302C0E0E0F0E08E2F9F2FDF916B
:10104000CF910895CF93DF93009709F456C0C82F2E
:10105000D92F22971B821A82A091EA01B091EB014D
:10106000109711F140E050E0AC17BD0710F1BB83C1
:10107000AA83EC2FFD2F21913191E20FF31FAE17C0
:10108000BF0779F48D919C911197280F391F2E5F1E
:101090003F4F3983288312968D919C9113979B83A0
:1010A0008A834115510581F4D093EB01C093EA0185
:1010B00024C012968D919C9113974A2F5B2F009715
:1010C00019F0A82FB92FD0CFE42FF52FD383C283E7
:1010D00021913191E20FF31FCE17DF0771F4888160
:1010E0009981280F391F2E5F3F4FE42FF52F318351
:1010F00020838A819B8193838283DF91CF9108959E
:04110000F894FFCF91
:101104002000EC010000FF0000000066025F03FC09
:0E111400012D020D025602000000000B030028
:00000001FF
