:100000000C9465000C9411060C943E060C948D0023
:100010000C948D000C948D000C948D000C94B505FF
:100020000C948D000C948D000C948D000C948D001C
:100030000C948D000C948D000C948D000C948D000C
:100040000C946B060C948D000C94D6010C94240235
:100050000C948D000C948D000C948D000C948D00EC
:100060000C948D000C948D000200000000240027E9
:10007000002A0000000000250028002B00000000DE
:1000800000230026002900040404040404040402DC
:100090000202020202030303030303010204081025
:1000A00020408001020408102001020408102000F2
:1000B0000000070002010000030406000000000029
:1000C000000000009003E603F50811241FBECFEFE7
:1000D000D8E0DEBFCDBF11E0A0E0B1E0EAEEF7E18D
:1000E00002C005900D92AE31B107D9F711E0AEE133
:1000F000B1E001C01D92A93EB107E1F710E0CAECE2
:10010000D0E004C02297FE010E94A109C43CD1079F
:10011000C9F70E9437040C94F30B0C940000FC0107
:10012000118210821282089521E0FC012283089539
:100130008F929F92AF92BF92CF92DF92EF92FF92F7
:100140000F931F93DF93CF93CDB7DEB768970FB6AA
:10015000F894DEBF0FBECDBF4C0186EA91E00E944D
:10016000E602181619060CF078C086EA91E060E203
:100170006E010894C11CD11CA60125E030E00E944C
:1001800048058C0196E0E92EF12CEC0EFD1E86EA66
:1001900091E060E2A70125E030E00E9448050C0DE7
:1001A0001D1DF8011082F701E80FF91F10828E0162
:1001B000055F1F4FC801B6010E94750882E1C82E75
:1001C000D12CCC0EDD1EC601B7010E947508C801F6
:1001D0000E94FB077B018C01C6010E94FB075B01AB
:1001E0006C01C801B70122E030E040E050E00E941D
:1001F0004D0989019A0130952095109501951F4F61
:100200002F4F3F4F1A141B041C041D0454F4F40117
:1002100080819181B501A80120E030E00E94B40105
:1002200014C0F40180819181A114B104C104D104EE
:1002300051F0662777276A197B09A80120E030E092
:100240000E94A50102C00E945D01CE0142960E945B
:100250008F08CE010B960E948F0868960FB6F8940F
:10026000DEBF0FBECDBFCF91DF911F910F91FF90E9
:10027000EF90DF90CF90BF90AF909F908F900895B8
:10028000EF92FF920F931F938C018AE090E00E94FF
:100290004604F82EE92E0E94C301F801F082E182A3
:1002A00086EA91E040E855E260E070E00E945F027B
:1002B0001F910F91FF90EF9008950F931F938C0162
:1002C0000E949908C80105960E9499081F910F91F4
:1002D00008950F931F93CF93DF938C014115510520
:1002E00031F09B01241B350B460F571F0BC0211506
:1002F000310519F49B01AB0105C0AB01421B530B47
:10030000260F371FB9012F3F310519F014F06FEF99
:1003100070E0EA014F3F510519F014F0CFEFD0E043
:1003200077FF02C060E070E0C8010E949508C80134
:100330000596BE01D7FF02C060E070E00E949508FC
:10034000DF91CF911F910F9108950F931F938C010F
:100350000E946901C8010E94B108C80105960E9467
:10036000B1081F910F9108950F931F938C010E9464
:100370006901C8010E94C708C80105960E94C70804
:100380001F910F9108950F931F938C0169E044E032
:1003900025E00E94DD08C80105966AE046E027E0F6
:1003A0000E94DD081F910F91089508951F920F92EA
:1003B0000FB60F9211242F933F934F938F939F93D8
:1003C000EF93FF938091C00082FD1DC04091C60055
:1003D00020915E0130915F012F5F3F4F2F7330708E
:1003E00080916001909161012817390771F0E091C7
:1003F0005E01F0915F01E25EFE4F408330935F014A
:1004000020935E0102C08091C600FF91EF919F9101
:100410008F914F913F912F910F900FBE0F901F9092
:100420001895E091B201F091B301E05CFF4F81912A
:10043000919120813181821B930B8F739070892B56
:1004400011F00E94D50108951F920F920FB60F92DE
:1004500011242F933F938F939F93EF93FF932091BA
:10046000A2013091A3018091A4019091A5012817C8
:10047000390731F48091C1008F7D8093C10014C091
:10048000E091A401F091A501EE59FE4F20818091E9
:10049000A4019091A50101968F7390709093A5018E
:1004A0008093A4012093C600FF91EF919F918F91BB
:1004B0003F912F910F900FBE0F901F901895AF9204
:1004C000BF92DF92EF92FF920F931F93CF93DF9330
:1004D000EC017A018B01DD24403081EE580780E089
:1004E000680780E0780711F0DD24D39491E0A92E0D
:1004F000B12CEC89FD89DD2069F0C50108A002C09E
:10050000880F991F0A94E2F7808360E079E08DE319
:1005100090E005C0108260E874E88EE190E0A801E8
:1005200097010E942B092150304040405040569581
:1005300047953795279580E12030380720F0DD205A
:1005400011F0DD24D6CFE889F9893083EA89FB8967
:10055000208319A2EE89FF89408121E030E0C901A2
:100560000C8C02C0880F991F0A94E2F7482B408335
:10057000EE89FF894081C9010D8C02C0880F991F47
:100580000A94E2F7482B4083EE89FF894081C90134
:100590000E8C02C0880F991F0A94E2F7482B408303
:1005A000EE89FF8980810F8C02C0220F331F0A94CD
:1005B000E2F7209528232083DF91CF911F910F919F
:1005C000FF90EF90DF90BF90AF900895DC011C96F4
:1005D000ED91FC911D97E05CFF4F2191319180815D
:1005E0009181281B390B2F733070C9010895DC01EC
:1005F0001C96ED91FC911D97E05CFF4F20813181AD
:10060000E054F040DF01AE5BBF4F8D919C9111979C
:100610002817390719F42FEF3FEF07C08D919C91F0
:10062000E80FF91F8081282F30E0C9010895DC010F
:100630001C96ED91FC911D97E05CFF4F208131816C
:10064000E054F040DF01AE5BBF4F8D919C9111975C
:100650002817390719F42FEF3FEF10C08D919C91A7
:100660001197E80FF91F20818D919C9111970196A8
:100670008F73907011969C938E9330E0C90108950A
:10068000DC0191968C919197882339F05496ED91E5
:10069000FC915597808186FFF9CF91961C92089521
:1006A000CF93DF93EC01EE85FF85E05CFF4F208167
:1006B0003181E054F0402F5F3F4F2F733070DF01E6
:1006C000AE5BBF4F8D919C91119728173907D1F3DD
:1006D000E05CFF4F80819181E054F040E80FF91F0A
:1006E0006083EE85FF85E05CFF4F31832083EE89D8
:1006F000FF89208181E090E00F8C02C0880F991F54
:100700000A94E2F7282B208381E089A3EC89FD89F4
:1007100080818064808381E090E0DF91CF910895B3
:100720001092A9011092A80188EE93E0A0E0B0E039
:100730008093AA019093AB01A093AC01B093AD015B
:100740008BE091E09093A7018093A6018EE191E068
:100750009093B3018093B20182E691E09093B5014A
:100760008093B40185EC90E09093B7018093B6013B
:1007700084EC90E09093B9018093B80180EC90E014
:100780009093BB018093BA0181EC90E09093BD01FE
:100790008093BC0182EC90E09093BF018093BE01F6
:1007A00086EC90E09093C1018093C00184E0809337
:1007B000C20183E08093C30187E08093C40185E098
:1007C0008093C50181E08093C60108958BE191E09B
:1007D0009093C9018093C8011092CA011092CB0175
:1007E0001092CC011092CD0108958F929F92AF92FA
:1007F000BF92CF92DF92EF92FF920F931F93CF930E
:10080000DF934C016B017C01AA24BB24C0E0D0E043
:10081000C601F70162814AE050E00E940A058C019E
:10082000C6016EE20E947304080F191FA00EB11ECC
:1008300021960894E11CF11CC330D10549F7C6018B
:10084000F40165814AE050E00E940A059501280FF5
:10085000391FC901DF91CF911F910F91FF90EF9048
:10086000DF90CF90BF90AF909F908F900895CF93DF
:10087000DF930E94C1060E94FF08C1E1D2E00E94FE
:10088000FA082097E1F30E941102F9CF0E94A5090E
:100890000895CF92DF92EF92FF920F931F93CF9321
:1008A000DF937C016B018A01C0E0D0E00FC0D6016C
:1008B0006D916D01D701ED91FC910190F081E02DDA
:1008C000C7010995C80FD91F015010400115110526
:1008D00071F7CE01DF91CF911F910F91FF90EF90B3
:1008E000DF90CF900895DC01ED91FC910190F081B3
:1008F000E02D09950895CF93DF93EC016115710503
:1009000019F420E030E00FC0DB010D900020E9F782
:100910001197A61BB70BE881F9810280F381E02DC6
:10092000AD0109959C01C901DF91CF9108954F92C6
:100930005F927F928F929F92AF92BF92CF92DF92FF
:10094000EF92FF920F931F93DF93CF93CDB7DEB754
:10095000A1970FB6F894DEBF0FBECDBF2C01742E49
:10096000CB01223008F42AE019A231E2C32ED12CA7
:10097000CC0EDD1E822E9924AA24BB24672D752F50
:10098000A50194010E942B0979018A01C801B701D0
:10099000A50194010E940C09472D461B0894C1082B
:1009A000D1084A3014F4405D01C0495CF60140832F
:1009B000E114F1040105110521F07E2C5F2DC80121
:1009C000DDCFC201B6010E947B04A1960FB6F89458
:1009D000DEBF0FBECDBFCF91DF911F910F91FF9072
:1009E000EF90DF90CF90BF90AF909F908F907F90CF
:1009F0005F904F900895DC012115310541F4ED9190
:100A0000FC910190F081E02D642F099508950E94DA
:100A100097040895EF92FF920F931F939A01E62E89
:100A2000FF2400E010E0B801A7010E94FB041F9121
:100A30000F91FF90EF900895CF93DF93EC010E9408
:100A4000B306688779878A879B87E881F981068062
:100A5000F781E02DCE0109959C0197FF15C00E94FA
:100A6000B306288539854A855B85621B730B840B29
:100A7000950B2C813D814E815F816217730784073E
:100A8000950718F32FEF3FEFC901DF91CF9108953C
:100A9000AF92BF92CF92DF92EF92FF920F931F938C
:100AA000CF93DF935C017A0189012115310519F497
:100AB000C0E0D0E016C0C0E0D0E0C62EDD24C7FC08
:100AC000D0940CC0C5010E941C0597FD0AC08C156E
:100AD0009D0539F0F70181937F012196C017D10759
:100AE00088F3CE01DF91CF911F910F91FF90EF908E
:100AF000DF90CF90BF90AF900895813041F081306A
:100B000018F08230D1F409C010926E0008958091DF
:100B10006F008D7F80936F000895809170008D7FAE
:100B20008093700081E08093B0008091B100887F55
:100B300084608093B1001092B30008951F93182F22
:100B400080910601811711F09FEF06C0E8E6F0E002
:100B500094918FEF80930601892F0E947D05812F4C
:100B600060E00E94C8071F9108951F920F920FB670
:100B70000F9211242F933F934F935F936F937F9323
:100B80008F939F93AF93BF93EF93FF938091CE0189
:100B90009091CF01A091D001B091D1010097A10512
:100BA000B10551F1E091D201F091D3018081909192
:100BB000D401892780838091CE019091CF01A091AB
:100BC000D001B091D101181619061A061B06C4F4FB
:100BD0008091CE019091CF01A091D001B091D1012F
:100BE0000197A109B1098093CE019093CF01A09301
:100BF000D001B093D10104C0809106010E949E05EE
:100C0000FF91EF91BF91AF919F918F917F916F91E4
:100C10005F914F913F912F910F900FBE0F901F90BA
:100C200018951F920F920FB60F9211242F933F9396
:100C30004F935F936F937F938F939F93AF93BF93E4
:100C4000EF93FF938091D5019091D601892B29F0E4
:100C5000E091D501F091D6010995FF91EF91BF91F7
:100C6000AF919F918F917F916F915F914F913F9144
:100C70002F910F900FBE0F901F9018951F920F92FB
:100C80000FB60F9211242F933F934F935F936F935F
:100C90007F938F939F93AF93BF93EF93FF93809135
:100CA000D7019091D801892B29F0E091D701F091DB
:100CB000D8010995FF91EF91BF91AF919F918F91CD
:100CC0007F916F915F914F913F912F910F900FBE48
:100CD0000F901F9018951F920F920FB60F9211242C
:100CE0002F933F938F939F93AF93BF938091DD0199
:100CF0009091DE01A091DF01B091E0013091E1011E
:100D00000196A11DB11D232F2D5F2D3720F02D57EA
:100D10000196A11DB11D2093E1018093DD01909307
:100D2000DE01A093DF01B093E0018091D9019091A1
:100D3000DA01A091DB01B091DC010196A11DB11D8A
:100D40008093D9019093DA01A093DB01B093DC0189
:100D5000BF91AF919F918F913F912F910F900FBEB7
:100D60000F901F9018958FB7F8942091DD01309166
:100D7000DE014091DF015091E0018FBFB901CA014E
:100D80000895789484B5826084BD84B5816084BD03
:100D900085B5826085BD85B5816085BDEEE6F0E0F4
:100DA000808181608083E1E8F0E010828081826050
:100DB0008083808181608083E0E8F0E080818160D1
:100DC0008083E1EBF0E0808184608083E0EBF0E001
:100DD000808181608083EAE7F0E0808184608083A5
:100DE000808182608083808181608083808180684F
:100DF00080831092C10008951F93CF93DF93182F23
:100E0000EB0161E00E945C07209709F44AC0CF3FE4
:100E1000D10509F449C0E12FF0E0E155FF4F84917D
:100E20008330C1F0843028F4813051F08230B1F544
:100E30000CC0863019F1873049F1843079F514C03F
:100E400084B5806884BDC7BD33C084B5806284BD6D
:100E5000C8BD2EC080918000806880938000D093B0
:100E60008900C093880024C08091800080628093B4
:100E70008000D0938B00C0938A001AC08091B0008C
:100E800080688093B000C093B30012C08091B0001E
:100E900080628093B000C093B4000AC0C038D1050E
:100EA0001CF4812F60E002C0812F61E00E94C8071E
:100EB000DF91CF911F910895CF93DF93482F50E09A
:100EC000CA0185569F4FFC01349149575F4FFA0183
:100ED0008491882369F190E0880F991FFC01E759FC
:100EE000FF4FA591B491FC01ED58FF4FC591D491EE
:100EF000662351F42FB7F8948C91932F9095892302
:100F00008C93888189230BC0623061F42FB7F894E9
:100F10008C91932F909589238C938881832B888340
:100F20002FBF06C09FB7F8948C91832B8C939FBFE3
:100F3000DF91CF910895833071F0843028F48130AF
:100F4000A1F0823021F514C08630B1F08730D1F0A5
:100F50008430E9F404C0809180008F7703C08091D1
:100F600080008F7D80938000089584B58F7702C0C4
:100F700084B58F7D84BD08958091B0008F77809374
:100F8000B00008958091B0008F7D8093B0000895E7
:100F9000FF920F931F93F62E482F50E0CA01815500
:100FA0009F4FFC012491CA0185569F4FFC0114916B
:100FB00049575F4FFA0104910023C9F0222319F029
:100FC000822F0E949B07E02FF0E0EE0FFF1FED58ED
:100FD000FF4FA591B4919FB7F894FF2021F48C9115
:100FE0001095812302C08C91812B8C939FBF1F9100
:100FF0000F91FF900895FC0180819181009729F461
:1010000020E030E040E050E004C00E94A20B9B01D1
:10101000AC01B901CA0108950F931F93CF93DF93D9
:10102000EC018B016F5F7F4F888199810E94C30A19
:10103000009711F480E005C0998388831B830A839D
:1010400081E0DF91CF911F910F910895CF93DF93AE
:10105000EC0188819981892B29F08A819B818617EF
:10106000970760F4CE010E940C08882341F08C8120
:101070009D81892B19F4E881F981108281E0DF914B
:10108000CF910895CF93DF93EC01888199810097E8
:1010900011F00E94650A198218821D821C821B822F
:1010A0001A82DF91CF910895EF92FF920F931F93D1
:1010B000CF93DF93EC017B018A01BA010E942608DD
:1010C000882321F4CE010E94420807C01D830C83AF
:1010D00088819981B7010E94D50BCE01DF91CF9114
:1010E0001F910F91FF90EF900895CF93DF93EC0144
:1010F000198218821B821A821D821C821E8261152F
:10110000710551F0DB010D900020E9F71197A61B46
:10111000B70BAD010E945408DF91CF910895FC01F7
:10112000808191810E94650A0895FC017483638324
:1011300008950F931F938C01FC0114821382818107
:1011400060E00E94C807F801828160E00E94C80741
:10115000F8016381748180810E94FC061F910F91C8
:1011600008950F931F938C01FC01818160E00E9420
:10117000C807F801828161E00E94C807F801638115
:10118000748180810E94FC061F910F9108950F9336
:101190001F938C01FC01818161E00E94C807F80166
:1011A000828160E00E94C807F801638174818081B8
:1011B0000E94FC061F910F9108950F931F938C01BD
:1011C000862FF80160834183228361E00E945C07DF
:1011D000F801818161E00E945C07F801828161E091
:1011E0000E945C071F910F91089582EE91E00E948A
:1011F0008F00089582EE91E00E94980008950F9369
:101200001F9302EE11E0C8010E944001C8010E9434
:1012100094001F910F910895629FD001739FF00178
:10122000829FE00DF11D649FE00DF11D929FF00D76
:10123000839FF00D749FF00D659FF00D9927729FAD
:10124000B00DE11DF91F639FB00DE11DF91FBD0138
:10125000CF0111240895A1E21A2EAA1BBB1BFD0188
:101260000DC0AA1FBB1FEE1FFF1FA217B307E40785
:10127000F50720F0A21BB30BE40BF50B661F771FDD
:10128000881F991F1A9469F76095709580959095BD
:101290009B01AC01BD01CF01089597FB092E0526E6
:1012A0000ED057FD04D0D7DF0AD0001C38F450957B
:1012B0004095309521953F4F4F4F5F4F0895F6F77A
:1012C00090958095709561957F4F8F4F9F4F0895B2
:1012D0002F923F924F925F926F927F928F929F9246
:1012E000AF92BF92CF92DF92EF92FF920F931F9334
:1012F000CF93DF93CDB7DEB7CA1BDB0B0FB6F894E5
:10130000DEBF0FBECDBF09942A88398848885F8424
:101310006E847D848C849B84AA84B984C884DF8095
:10132000EE80FD800C811B81AA81B981CE0FD11D79
:101330000FB6F894DEBF0FBECDBFED010895EE0FDE
:10134000FF1F0590F491E02D0994CF93DF93682F50
:10135000792F8230910510F462E070E0A091E701EE
:10136000B091E801CA2FDB2FE0E0F0E040E050E070
:1013700026C0888199818617970771F48A819B819D
:10138000309719F09383828304C09093E80180938F
:10139000E701EC2FFD2F3BC06817790740F441159A
:1013A000510519F08417950710F4482F592FEC2F89
:1013B000FD2F8A819B81282F392FC22FD32F209771
:1013C000C1F641155105E9F1842F952F861B970B26
:1013D000049710F4642F752FE0E0F0E030C08D9199
:1013E0009C9111978417950711F56417750789F477
:1013F00012968D919C911397309719F09383828365
:1014000004C09093E8018093E701EA2FFB2F329606
:1014100057C0842F952F861B970BEA2FFB2FE80FC1
:10142000F91F6193719302978D939C9349C0EA2FA2
:10143000FB2F82819381282F392FA22FB32F109752
:1014400071F68091E5019091E601892B41F480913C
:101450000201909103019093E6018093E501409190
:101460000401509105014115510541F44DB75EB796
:101470008091000190910101481B590B2091E501D9
:101480003091E60124173507C8F4842F952F821B6D
:10149000930B8617970790F0462F572F4E5F5F4F9D
:1014A0008417950758F0420F531F5093E60140935D
:1014B000E501E22FF32F6193719302C0E0E0F0E0C9
:1014C0008E2F9F2FDF91CF910895CF93DF930097B9
:1014D00009F456C0C82FD92F22971B821A82A091D7
:1014E000E701B091E801109711F140E050E0AC172E
:1014F000BD0710F1BB83AA83EC2FFD2F2191319101
:10150000E20FF31FAE17BF0779F48D919C911197ED
:10151000280F391F2E5F3F4F3983288312968D91F4
:101520009C9113979B838A834115510581F4D09335
:10153000E801C093E70124C012968D919C91139706
:101540004A2F5B2F009719F0A82FB92FD0CFE42F87
:10155000F52FD383C28321913191E20FF31FCE1770
:10156000DF0771F488819981280F391F2E5F3F4F63
:10157000E42FF52F318320838A819B81938382839B
:10158000DF91CF910895A0E0B0E0E8ECFAE0A6CEBC
:10159000082F192F009731F4862F972FD6DE082FAA
:1015A000192FCAC09EEFE92E9FEFF92EE00EF11E13
:1015B000A02EB12EA60EB71EAE14BF0408F4BAC0FA
:1015C0008EEF882E8FEF982E8A0C9B1CCE2DDF2D50
:1015D0004881598146175707C8F04530510508F42E
:1015E000ABC0842F952F04978617970708F4A4C0E3
:1015F00042505040461B570BE82DF92D5183408334
:10160000798368838A2D9B2D60DF96C0C62ED72EE6
:10161000C41AD50AE091E701F091E801A0E0B0E03A
:10162000C0E0D0E049C0E815F905B9F52081318165
:101630002C153D0590F1822F932F02968C159D0558
:10164000B0F04E5F5F4F420F531FCE2DDF2D5983F9
:10165000488322813381109729F013963C932E936F
:1016600012976AC03093E8012093E70165C02250C9
:1016700030402C193D0931832083109729F01396AF
:10168000FC93EE93129704C0F093E801E093E70116
:10169000EE2DFF2D718360834FC080819181C8172B
:1016A000D90710F4C82FD92FAE2FBF2F8281938175
:1016B000282F392FE22FF32F309709F0B4CF400FA6
:1016C000511F8091E5019091E60184179507F1F48F
:1016D000C617D707D8F420910401309105012115D0
:1016E000310541F42DB73EB7809100019091010181
:1016F000281B390BA216B306E8F4B092E601A092BB
:10170000E501CE2DDF2D7983688316C0862F972FB4
:101710001CDEC82FD92F209769F0EE2DFF2D4081B8
:101720005181602F712F36D0802F912FCEDE0C2F5C
:101730001D2F02C000E010E0802F912FCDB7DEB743
:10174000ECE0E8CD1F93E82FF92F99278827682F21
:10175000792FE89411911032E9F3193010F01E300E
:10176000C8F31B3249F01D3241F4689405C026D0FD
:10177000610F711D811D911D119110531A30B8F325
:101780003EF490958095709561957F4F8F4F9F4F58
:101790001F910895E62FF72FA82FB92F02C00190AF
:1017A0000D9241505040D8F70895E62FF72FA82FFB
:1017B000B92F01900D920020E1F70895592F482F7D
:1017C000372F262F660F771F881F991F660F771FE9
:1017D000881F991F620F731F841F951F660F771F45
:0A17E000881F991F0895F894FFCFA9
:1017EA002000E9010000FF0000000050034904E660
:0E17FA00021703F702400300000000F5030091
:00000001FF
